{
  "contractName": "MessageBoard",
  "abi": [
    {
      "anonymous": false,
      "inputs": [
        {
          "indexed": true,
          "internalType": "uint256",
          "name": "id",
          "type": "uint256"
        },
        {
          "indexed": false,
          "internalType": "string",
          "name": "content",
          "type": "string"
        },
        {
          "indexed": true,
          "internalType": "address",
          "name": "author",
          "type": "address"
        },
        {
          "indexed": false,
          "internalType": "uint256",
          "name": "timestamp",
          "type": "uint256"
        }
      ],
      "name": "MessagePosted",
      "type": "event"
    },
    {
      "inputs": [],
      "name": "messageCount",
      "outputs": [
        {
          "internalType": "uint256",
          "name": "",
          "type": "uint256"
        }
      ],
      "stateMutability": "view",
      "type": "function",
      "constant": true
    },
    {
      "inputs": [
        {
          "internalType": "uint256",
          "name": "",
          "type": "uint256"
        }
      ],
      "name": "messages",
      "outputs": [
        {
          "internalType": "uint256",
          "name": "id",
          "type": "uint256"
        },
        {
          "internalType": "string",
          "name": "content",
          "type": "string"
        },
        {
          "internalType": "address",
          "name": "author",
          "type": "address"
        },
        {
          "internalType": "uint256",
          "name": "timestamp",
          "type": "uint256"
        }
      ],
      "stateMutability": "view",
      "type": "function",
      "constant": true
    },
    {
      "inputs": [
        {
          "internalType": "string",
          "name": "_content",
          "type": "string"
        }
      ],
      "name": "postMessage",
      "outputs": [],
      "stateMutability": "nonpayable",
      "type": "function"
    },
    {
      "inputs": [
        {
          "internalType": "uint256",
          "name": "_id",
          "type": "uint256"
        }
      ],
      "name": "getMessage",
      "outputs": [
        {
          "internalType": "uint256",
          "name": "id",
          "type": "uint256"
        },
        {
          "internalType": "string",
          "name": "content",
          "type": "string"
        },
        {
          "internalType": "address",
          "name": "author",
          "type": "address"
        },
        {
          "internalType": "uint256",
          "name": "timestamp",
          "type": "uint256"
        }
      ],
      "stateMutability": "view",
      "type": "function",
      "constant": true
    },
    {
      "inputs": [],
      "name": "getAllMessages",
      "outputs": [
        {
          "components": [
            {
              "internalType": "uint256",
              "name": "id",
              "type": "uint256"
            },
            {
              "internalType": "string",
              "name": "content",
              "type": "string"
            },
            {
              "internalType": "address",
              "name": "author",
              "type": "address"
            },
            {
              "internalType": "uint256",
              "name": "timestamp",
              "type": "uint256"
            }
          ],
          "internalType": "struct MessageBoard.Message[]",
          "name": "",
          "type": "tuple[]"
        }
      ],
      "stateMutability": "view",
      "type": "function",
      "constant": true
    },
    {
      "inputs": [],
      "name": "getMessageCount",
      "outputs": [
        {
          "internalType": "uint256",
          "name": "",
          "type": "uint256"
        }
      ],
      "stateMutability": "view",
      "type": "function",
      "constant": true
    }
  ],
  "bytecode": "0x608060405234801561001057600080fd5b50611047806100206000396000f3fe608060405234801561001057600080fd5b50600436106100625760003560e01c80630d80fefd14610067578063319339161461009a5780633dbcc8d1146100b857806353f5e380146100d65780636630f88f146100f457806386f79edb14610110575b600080fd5b610081600480360381019061007c9190610743565b610143565b6040516100919493929190610850565b60405180910390f35b6100a261022b565b6040516100af919061089c565b60405180910390f35b6100c0610235565b6040516100cd919061089c565b60405180910390f35b6100de61023b565b6040516100eb9190610a44565b60405180910390f35b61010e60048036038101906101099190610acb565b610396565b005b61012a60048036038101906101259190610743565b610568565b60405161013a9493929190610850565b60405180910390f35b6000818154811061015357600080fd5b906000526020600020906004020160009150905080600001549080600101805461017c90610b47565b80601f01602080910402602001604051908101604052809291908181526020018280546101a890610b47565b80156101f55780601f106101ca576101008083540402835291602001916101f5565b820191906000526020600020905b8154815290600101906020018083116101d857829003601f168201915b5050505050908060020160009054906101000a900473ffffffffffffffffffffffffffffffffffffffff16908060030154905084565b6000600154905090565b60015481565b60606000805480602002602001604051908101604052809291908181526020016000905b8282101561038d57838290600052602060002090600402016040518060800160405290816000820154815260200160018201805461029c90610b47565b80601f01602080910402602001604051908101604052809291908181526020018280546102c890610b47565b80156103155780601f106102ea57610100808354040283529160200191610315565b820191906000526020600020905b8154815290600101906020018083116102f857829003601f168201915b505050505081526020016002820160009054906101000a900473ffffffffffffffffffffffffffffffffffffffff1673ffffffffffffffffffffffffffffffffffffffff1673ffffffffffffffffffffffffffffffffffffffff1681526020016003820154815250508152602001906001019061025f565b50505050905090565b600082829050116103dc576040517f08c379a00000000000000000000000000000000000000000000000000000000081526004016103d390610bc4565b60405180910390fd5b60006040518060800160405280600154815260200184848080601f016020809104026020016040519081016040528093929190818152602001838380828437600081840152601f19601f8201169050808301925050505050505081526020013373ffffffffffffffffffffffffffffffffffffffff1681526020014281525090806001815401808255809150506001900390600052602060002090600402016000909190919091506000820151816000015560208201518160010190816104a39190610dbf565b5060408201518160020160006101000a81548173ffffffffffffffffffffffffffffffffffffffff021916908373ffffffffffffffffffffffffffffffffffffffff1602179055506060820151816003015550503373ffffffffffffffffffffffffffffffffffffffff166001547fbf785e5a66123ad974c4090911fb1a59f83518c17083c5adc7b8edb0ee5668fb84844260405161054493929190610ecd565b60405180910390a36001600081548092919061055f90610f2e565b91905055505050565b6000606060008060015485106105b3576040517f08c379a00000000000000000000000000000000000000000000000000000000081526004016105aa90610fc2565b60405180910390fd5b60008086815481106105c8576105c7610fe2565b5b9060005260206000209060040201604051806080016040529081600082015481526020016001820180546105fb90610b47565b80601f016020809104026020016040519081016040528092919081815260200182805461062790610b47565b80156106745780601f1061064957610100808354040283529160200191610674565b820191906000526020600020905b81548152906001019060200180831161065757829003601f168201915b505050505081526020016002820160009054906101000a900473ffffffffffffffffffffffffffffffffffffffff1673ffffffffffffffffffffffffffffffffffffffff1673ffffffffffffffffffffffffffffffffffffffff168152602001600382015481525050905080600001518160200151826040015183606001519450945094509450509193509193565b600080fd5b600080fd5b6000819050919050565b6107208161070d565b811461072b57600080fd5b50565b60008135905061073d81610717565b92915050565b60006020828403121561075957610758610703565b5b60006107678482850161072e565b91505092915050565b6107798161070d565b82525050565b600081519050919050565b600082825260208201905092915050565b60005b838110156107b957808201518184015260208101905061079e565b60008484015250505050565b6000601f19601f8301169050919050565b60006107e18261077f565b6107eb818561078a565b93506107fb81856020860161079b565b610804816107c5565b840191505092915050565b600073ffffffffffffffffffffffffffffffffffffffff82169050919050565b600061083a8261080f565b9050919050565b61084a8161082f565b82525050565b60006080820190506108656000830187610770565b818103602083015261087781866107d6565b90506108866040830185610841565b6108936060830184610770565b95945050505050565b60006020820190506108b16000830184610770565b92915050565b600081519050919050565b600082825260208201905092915050565b6000819050602082019050919050565b6108ec8161070d565b82525050565b600082825260208201905092915050565b600061090e8261077f565b61091881856108f2565b935061092881856020860161079b565b610931816107c5565b840191505092915050565b6109458161082f565b82525050565b600060808301600083015161096360008601826108e3565b506020830151848203602086015261097b8282610903565b9150506040830151610990604086018261093c565b5060608301516109a360608601826108e3565b508091505092915050565b60006109ba838361094b565b905092915050565b6000602082019050919050565b60006109da826108b7565b6109e481856108c2565b9350836020820285016109f6856108d3565b8060005b85811015610a325784840389528151610a1385826109ae565b9450610a1e836109c2565b925060208a019950506001810190506109fa565b50829750879550505050505092915050565b60006020820190508181036000830152610a5e81846109cf565b905092915050565b600080fd5b600080fd5b600080fd5b60008083601f840112610a8b57610a8a610a66565b5b8235905067ffffffffffffffff811115610aa857610aa7610a6b565b5b602083019150836001820283011115610ac457610ac3610a70565b5b9250929050565b60008060208385031215610ae257610ae1610703565b5b600083013567ffffffffffffffff811115610b0057610aff610708565b5b610b0c85828601610a75565b92509250509250929050565b7f4e487b7100000000000000000000000000000000000000000000000000000000600052602260045260246000fd5b60006002820490506001821680610b5f57607f821691505b602082108103610b7257610b71610b18565b5b50919050565b7f436f6e74656e742063616e6e6f7420626520656d707479000000000000000000600082015250565b6000610bae60178361078a565b9150610bb982610b78565b602082019050919050565b60006020820190508181036000830152610bdd81610ba1565b9050919050565b7f4e487b7100000000000000000000000000000000000000000000000000000000600052604160045260246000fd5b60008190508160005260206000209050919050565b60006020601f8301049050919050565b600082821b905092915050565b600060088302610c757fffffffffffffffffffffffffffffffffffffffffffffffffffffffffffffffff82610c38565b610c7f8683610c38565b95508019841693508086168417925050509392505050565b6000819050919050565b6000610cbc610cb7610cb28461070d565b610c97565b61070d565b9050919050565b6000819050919050565b610cd683610ca1565b610cea610ce282610cc3565b848454610c45565b825550505050565b600090565b610cff610cf2565b610d0a818484610ccd565b505050565b5b81811015610d2e57610d23600082610cf7565b600181019050610d10565b5050565b601f821115610d7357610d4481610c13565b610d4d84610c28565b81016020851015610d5c578190505b610d70610d6885610c28565b830182610d0f565b50505b505050565b600082821c905092915050565b6000610d9660001984600802610d78565b1980831691505092915050565b6000610daf8383610d85565b9150826002028217905092915050565b610dc88261077f565b67ffffffffffffffff811115610de157610de0610be4565b5b610deb8254610b47565b610df6828285610d32565b600060209050601f831160018114610e295760008415610e17578287015190505b610e218582610da3565b865550610e89565b601f198416610e3786610c13565b60005b82811015610e5f57848901518255600182019150602085019450602081019050610e3a565b86831015610e7c5784890151610e78601f891682610d85565b8355505b6001600288020188555050505b505050505050565b82818337600083830152505050565b6000610eac838561078a565b9350610eb9838584610e91565b610ec2836107c5565b840190509392505050565b60006040820190508181036000830152610ee8818587610ea0565b9050610ef76020830184610770565b949350505050565b7f4e487b7100000000000000000000000000000000000000000000000000000000600052601160045260246000fd5b6000610f398261070d565b91507fffffffffffffffffffffffffffffffffffffffffffffffffffffffffffffffff8203610f6b57610f6a610eff565b5b600182019050919050565b7f4d65737361676520646f6573206e6f7420657869737400000000000000000000600082015250565b6000610fac60168361078a565b9150610fb782610f76565b602082019050919050565b60006020820190508181036000830152610fdb81610f9f565b9050919050565b7f4e487b7100000000000000000000000000000000000000000000000000000000600052603260045260246000fdfea2646970667358221220b6bcaab85dc9747181a21697b8f0226a705bc855b60afff046247f133ca6066564736f6c63430008130033",
  "immutableReferences": {},
  "source": "// SPDX-License-Identifier: MIT\npragma solidity ^0.8.19;\n\ncontract MessageBoard {\n    struct Message {\n        uint256 id;\n        string content;\n        address author;\n        uint256 timestamp;\n    }\n\n    Message[] public messages;\n    uint256 public messageCount;\n\n    event MessagePosted(uint256 indexed id, string content, address indexed author, uint256 timestamp);\n\n    function postMessage(string calldata _content) public {\n        require(bytes(_content).length > 0, \"Content cannot be empty\");\n\n        messages.push(Message({\n            id: messageCount,\n            content: _content,\n            author: msg.sender,\n            timestamp: block.timestamp\n        }));\n\n        emit MessagePosted(messageCount, _content, msg.sender, block.timestamp);\n        messageCount++;\n    }\n\n    function getMessage(uint256 _id) public view returns (uint256 id, string memory content, address author, uint256 timestamp) {\n        require(_id < messageCount, \"Message does not exist\");\n        Message memory msg = messages[_id];\n        return (msg.id, msg.content, msg.author, msg.timestamp);\n    }\n\n    function getAllMessages() public view returns (Message[] memory) {\n        return messages;\n    }\n\n    function getMessageCount() public view returns (uint256) {\n        return messageCount;\n    }\n}\n",
  "sourcePath": "C:\\Rajesh\\Agentic_Code\\Blockchain-MessageBoard\\contracts\\MessageBoard.sol",
  "compiler": {
    "name": "solc",
    "version": "0.8.19+commit.7dd6d404.Emscripten.clang"
  },
  "schemaVersion": "3.4.16",
  "updatedAt": "2026-04-19T14:41:05.200Z",
  "networkType": "ethereum",
  "devdoc": {
    "kind": "dev",
    "methods": {},
    "version": 1
  },
  "userdoc": {
    "kind": "user",
    "methods": {},
    "version": 1
  }
}